:1000000000308A00182800001230A802031C1728AC
:10001000283084008313FC3080050310800C800C92
:1000200000080319172815280000800B1428080061
:10003000840183131F308305A101A001261007301E
:100040009F002008E13C031D2B28A108031D2B283D
:1000500026182B282614A008031D3428A108031DE8
:100060003428261C34282610261C3B282008031977
:10007000A103A0033E28A00A0319A10A2008E13C1D
:10008000A200A3012108031C210FA302831605105F
:10009000831205142108A700A70AA70303195428EF
:1000A000FF30A80004204D282008A8000420831653
:1000B0000510831205102308A700A70AA703031938
:1000C0006528FF30A80004205E282208A80004202C
:0400D0002128630080
:02400E002A3F47
:00000001FF
;PIC16F628A
;CRC=9D2A  CREATED="23-fev-23 14:54"
