:1000000000308A00AF280000FF00030E8301A1002A
:100010000A08A0008A010408A2007708A300780853
:10002000A4007908A5007A08A600831383128C30F7
:100030008400801E1D288C1A2E2822088400230884
:10004000F7002408F8002508F9002608FA0020081F
:100050008A00210E8300FF0E7F0E09008A110A120A
:1000600031288C1E31281A08A9002908693C031D73
:100070003A2827142908663C031D3F28A71429089D
:100080006D3C031D442827152908743C031D49288D
:10009000A715271C5C28A71C5C28271D5C28A71D0A
:1000A0005C282908A800831688100230831288066D
:1000B0002710A7102711A7118C128A110A121D28C8
:1000C0002E08F8012D02031868282D08F70074285F
:1000D000F7010830AF00AD0DF70D2E0877020318B9
:1000E000F700F80DAF0B6B28080078082B08AD005F
:1000F0006430AE0060207708AB0078083030031D14
:100100008828AC1C9028AC1990282C1A20308B28F9
:10011000AC112C122C14F80778080C1E8D289900AD
:100120002B08AD000A30AE0060207708AB007808DD
:100130003030031DA128AC19A6282C1CA6282C1A87
:100140002030F80778080C1EA32899003030AB0740
:100150002B080C1EA92899008A110A121129840162
:1001600083131F308305FF3083169900A230980057
:100170009030831298002710A7102711A71183161B
:100180001F149F141F159F1107309C00FF3083120E
:10019000AA0083161F149F141F159F111F1383128B
:1001A0001F139F1383169F1383121F1483160912A4
:1001B00083129412AA122A088316870083122A1621
:1001C0002A08831687008312AA112A08831687003B
:1001D0000130831294000030831694000108C7395F
:1001E00008388100831290010030F800920000303E
:1001F0008316920007309C00050885001030F70038
:10020000F70B002900001C0883120D1383169D01B3
:100210008C16C03083128B042808AB001B30AC0056
:10022000752820300C1E122999000A300C1E162940
:0602300099000C29630097
:02400E003A3F37
:00000001FF
;PIC16F877A
;CRC=CF46  CREATED="28-mar-23 02:16"
