:1000000000308A008B280000FF00030E8301A1004E
:100010000A08A0008A010408A2007708A300780853
:10002000A4007908A5007A08A600831383128C30F7
:100030008400801E1D288C1A2E2822088400230884
:10004000F7002408F8002508F9002608FA0020081F
:100050008A00210E8300FF0E7F0E09008A110A120A
:1000600031288C1E31281A08A9002908A800271455
:100070008C128A110A121D282E08F8012D0203186D
:1000800044282D08F7005028F7010830AF00AD0DC7
:10009000F70D2E0877020318F700F80DAF0B47286D
:1000A000080078082B08AD006430AE003C207708CB
:1000B000AB0078083030031D6428AC1C6C28AC19E8
:1000C0006C282C1A20306728AC112C122C14F8073D
:1000D00078080C1E692899002B08AD000A30AE0084
:1000E0003C207708AB0078083030031D7D28AC1920
:1000F00082282C1C82282C1A2030F80778080C1E25
:100100007F2899003030AB072B080C1E85289900FA
:100110008A110A12EF28840183131F308305FF30F0
:1001200083169900A230980090308312980027100F
:10013000A710A801A90183161F149F141F159F1152
:1001400007309C00FF308312AA0083161F149F14EF
:100150001F159F111F1383121F139F1383169F13C5
:1001600083121F148316091283129412AA122A08EA
:100170008316870083122A162A08831687008312A3
:10018000AA112A08831687000130831294000030D8
:10019000831694000108C739083881008312900142
:1001A0000030F800920000308316920007309C0067
:1001B000050885001030F700F70BDC2800001C084C
:1001C00083120D1383169D018C16C03083128B048D
:1001D000271CFD282808AB001B30AC00512820301C
:1001E0000C1EF02899000A300C1EF42899002710E4
:0E01F00083168810023083128806E828630008
:02400E003A3F37
:00000001FF
;PIC16F877A
;CRC=62FD  CREATED="29-mar-23 13:38"
