:1000000000308A001828000026308400831300087E
:10001000031917280630F800F701F70B0D28F80B25
:100020000C287B30F700F70B1328800B0A280800F8
:10003000840183131F308305FF3083169900A2309B
:10004000980090308312980083161F149F141F1578
:100050009F1107309C001F1783121F179F138316D1
:100060009F1783121F1483161F109F141F159F15AF
:100070000030F80083121F08C73978049F00213030
:10008000F700F70B41281F151F19442883161E0877
:100090008312A1001E08A2002208003C0318532866
:1000A000FF30A50055282108A5002108A40022083A
:1000B000A30069300C1E5A2899006430A600042061
:1000C00066300C1E612899006430A60004206D3053
:1000D0000C1E682899006430A600042074300C1EA1
:1000E0006F2899006430A600042025080C1E76288D
:0C00F00099006430A6000420432863003F
:02400E003A3F37
:00000001FF
;PIC16F877A
;CRC=0D1C  CREATED="28-mar-23 02:11"
