:1000000001308A00DB2900008E30F7002608F80056
:100010002508F900FA01F808031D18287908F800E6
:10002000F9010830F702F808031D1828F701202805
:100030000310F81B1F28F90DF80DF7031828F81303
:100040008A110A12102AF701F801F901FA01BA011E
:10005000BB01BC01BD01390838043704360403195B
:1000600061282030BE000310B20DB30DB40DB50DE4
:10007000BA0DBB0DBC0DBD0D39083D02031D4A284C
:1000800038083C02031D4A2837083B02031D4A2852
:1000900036083A02031C5B283608BA023708031CEC
:1000A000370FBB023808031C380FBC023908031C89
:1000B000390FBD020314F70DF80DF90DFA0DBE0B43
:1000C00033283A308400831308000408AA00290862
:1000D000AC000319F7282808B5002708B400260843
:1000E000B3002508B200B901B8012030B700823052
:1000F000B60032080319E928BA0036080319E928BE
:10010000BA0703188A287F30BA02031CE9280319AA
:10011000E9288E288130BA070318E9283A08F70041
:10012000F801F901FA013308BE00BE173408BD001A
:100130003508BC001830BA00BB013C1CB728390890
:10014000FA07031CA928F90A031DA928F80A0319AC
:10015000BB173808F907031CB028F80A0319BB17A6
:100160003708B400B4173408F8070318BB17BB0DE1
:10017000F80CF90CFA0CBE0CBD0CBC0C0310BA0B3D
:100180009C280130F7070318E928F81BCE28BE0D7C
:10019000FA0DF90DF80DF7030319E928BE1FDF2842
:1001A000FA0A031DDF28F90A031DDF28F80A031DD8
:1001B000DF28F80CF90CFA0CF70A0319E9283308C0
:1001C000BB003708BB06BB1FE728F817ED28F8135C
:1001D000ED28F701F801F901FA017A08A800790879
:1001E000A7007808A6007708A500AC0B6B282808A4
:1001F000B5002708B4002608B3002508B20032086D
:10020000B63CB200FA013308B600B3170310B30CC2
:10021000B40CB50CFA0CF90CF80CF70CB20B06295F
:10022000B61F1D29F709F809F909FA09F70A031990
:10023000F80A0319F90A0319FA0A7A08A8007908D2
:10024000A7007808A6007708A500A81F3429AA03EC
:10025000AA16A509A609A709A809A50A0319A60AA5
:100260000319A70A0319A80A3B30B1009A30B0005D
:10027000CA30AF00AE010A30AC0029080319AA0A3F
:100280002808B5002708B4002608B3002508B200E6
:100290003108B9003008B8002F08B7002E08B600A2
:1002A00023200008A500840A0008A600840A00088C
:1002B000A700840A0008A800FD308407F708031D82
:1002C0007429290A2C02031974292A08031976298A
:1002D0000F392C0203196E290318AA29AA1BAA296F
:1002E0002A1B76292030A5292030AA05AA1E852997
:1002F000AA122908031DAA037708AA002D300C1E94
:100300007F2999002A08F700AA0129082C02031D59
:1003100094297708AA002E300C1E8C2999002A08EF
:10032000F7002030AA0500303030AA1EA529AA12F5
:100330002908031DAA037708AA002D300C1E9E2948
:1003400099002A08F700AA013030F70777080C1E39
:10035000A72999003108B5003008B4002F08B30070
:100360002E08B200B901B801B7010A30B600232047
:100370007A08B1007908B0007808AF007708AE00BD
:10038000AC0B40298A110A12252A253084008313D8
:1003900000080319D8290630F800F701F70BCE2919
:1003A000F80BCD297B30F700F70BD429800BCB2934
:1003B0008A110A12282A840183131F308305FF3013
:1003C00083169900A230980090308312980083160B
:1003D0001F149F141F159F1107309C001F109F10A2
:1003E0001F159F111F1783121F179F1383169F1727
:1003F00083121F140030F8001F08C73978049F00CB
:100400002130F700F70B022A1F151F19052A1E08B5
:10041000FA0083161E088312A5001E08A6000428F1
:100420007A08A4007908A3007808A2007708A10040
:10043000893084002408A8002308A7002208A60009
:100440002108A5000230A9006528C830A500C529EB
:04045000042A630017
:02400E003A3F37
:00000001FF
;PIC16F877A
;CRC=11EE  CREATED="30-mar-23 00:16"
