:1000000005308A00E62D00003D308400831300088F
:10001000031917280630F800F701F70B0D28F80B25
:100020000C287B30F700F70B1328800B0A280800F8
:100030000830F8000430F700F70B1C2886138316ED
:1000400086130330F700F70B23288312C10D061324
:10005000031C2D28831606178312031832288316D3
:1000600006138312831686178312861F3528F80B12
:100070001A280430F700F70B3B28861383168613E3
:10008000000006170330F700F70B44280330F70091
:10009000F70B482886178312861F4C28F801033077
:1000A000F700F70B5128061B781486138316861366
:1000B000831206138316061383120800BF01C001C2
:1000C0003D08C000C1013E08BF008316061704307A
:1000D000F700F70B692886170330F700F70B6E2837
:1000E00083120613831606130430F700F70B7628E5
:1000F000831286138316861388308312C10018205A
:100100003F08C10018204008C100182083160613BC
:10011000000086178312861F8B280430F700F70B28
:100120008F2892280000831606170430F700F70B7B
:10013000972883120800831606170430F700F70B80
:100140009F2886170330F700F70BA42883120613A5
:10015000831606130430F700F70BAC2883128613BE
:100160008316861364308312BD0004203030BE0035
:10017000A230BD005E200F30BD0004200130AB0076
:100180002B08031DC9283030BE006D30BD005E2035
:10019000CF283030BE006630BD005E20CF288A11E7
:1001A0000A12502E0830BE007708BF0083160617CB
:1001B0000330F700F70BDA2886178312861FDE2834
:1001C000061B0314061F0310F80D0430F700F70B8D
:1001D000E7288316861383128613BE0BD628831650
:1001E00006170330F700F70BF328831206133F08B6
:1001F0000319FD2883160613831200008316861741
:100200008312861F01290430F700F70B0529861396
:10021000831686130330F700F70B0C29831206139D
:100220008316061383120800BF01C001FF30C1000E
:10023000BF01BF1B1F293F08013C031C3C293F088D
:100240003D07840083133E1883170008C106083059
:10025000C000C01B3A294008003C03183A29C11FBE
:1002600036290310410D313AC10038290310C10D60
:10027000C0032929BF0A19294108F8000800C00154
:10028000BF01C0013D08BF003F08C000BF013E08DC
:10029000BF043F08F8004008F90008002030C900FA
:1002A000C501C601C701C8014008FA003F08F900AE
:1002B0003E08F8003D08F7000310771C6D2941083F
:1002C000C50742080318420FC60743080318430F27
:1002D000C70744080318440FC807C80CC70CC60C4E
:1002E000C50CFA0CF90CF80CF70CC90B5C290800CA
:1002F000B630F700FA01F901F8014310C21F8E2948
:100300004314BF09C009C109C209BF0A031D8E29D0
:10031000C00A031D8E29C10A0319C20A3F084004FE
:1003200041044204031D9629F701A5290310F81B77
:10033000A229BF0DC00DC10DC20DFA0DF90DF80DAA
:10034000F70B9629F8134318F81708004308031908
:100350006B2ACF00470803196B2ACF02031CB5296B
:100360007F30CF0703186B2ABB298130CF02031CD3
:100370006B2A03196B2A4F08F700F801F901FA01FB
:10038000CE014408CD00CD174508CC004608CB006F
:100390001930CF004A08CB020318DE290130CC0205
:1003A0000318DE29CD020318DE29CE020318DE2948
:1003B000CE0ACD0ACC0A4A08CB07102A4908CC023B
:1003C0000318F9290130CD020318F929CE020318C8
:1003D000F929CE0ACD0A4908CC074A08CB07031CE5
:1003E000102ACC0A031D102ACD0A031D102ACE0A9A
:1003F000102A48088038CD0203180F2A0130CE0297
:1004000003180F2ACE0A48088038CD074908CC07C0
:10041000031CED29CD0A031DED29CE0AED297A141E
:10042000CF0B132A1E2A0310CB0DCC0DCD0DCE0DF4
:100430000310FA0DF90DF80DD00DCA29501C262A0B
:100440000310F80CF90CFA0CD00C292AF703031945
:100450006B2AD01B522A0310CB0DCC0DCD0DCE0D27
:100460004A08CB0203183E2A0130CC0203183E2A68
:10047000CD0203183E2ACE02031C612A4908CC0291
:100480000318492A0130CD020318492ACE02031C61
:10049000612A48088038CD020318522A0130CE0262
:1004A000031C612AFA0A031D612AF90A031D612A45
:1004B000F80A031D612AF70A03196B2AF80CF90CD4
:1004C000FA0C4408CF004808CF06CF1F692AF81756
:1004D0006F2AF8136F2AF701F801F901FA010800F1
:1004E000AF01B001B101B201B301B401B801B7016C
:1004F000B601B501BC01BB01BA01B9012430BE008F
:10050000BD015E201430BD000420831606170430A0
:10051000F700F70B892A86170330F700F70B8E2AAE
:1005200083120613831606130430F700F70B962A7E
:10053000831286138316861389308312C100182014
:100540000130F700D2207808AF000130F700D22048
:100550007808B0000130F700D2207808B1000130EF
:10056000F700D2207808B2000130F700D2207808D6
:10057000B300F701D2207808B400831606130000F8
:1005800086178312861FC22A0430F700F70BC62A8B
:10059000C92A0000831606170430F700F70BCE2A8D
:1005A0008312BE012F30BD00142178083102031DD3
:1005B000E12ABE013230BD0014217808340203194B
:1005C000E42A0130F800772D2F08BD003008BE0066
:1005D0003F217808F7007908F800F901FA017A0854
:1005E000B8007908B7007808B6007708B500C001F0
:1005F000BF011130BE001730BD003808C4003708F5
:10060000C3003608C2003508C1004E217A08C00078
:100610007908BF007808BE007708BD003E08BD001D
:100620003F08BE004008BF00C001C00CBF0CBE0C9C
:10063000BD0CC00CBF0CBE0CBD0CC00CBF0CBE0C66
:10064000BD0CC00CBF0CBE0CBD0CC00CBF0CBE0C56
:10065000BD0CC00CBF0CBE0CBD0C0330C005400867
:10066000C5003F08C4003E08C3003D08C200B630C4
:10067000F700FA01F901F801420843044404450473
:10068000031D442BF701512B0310F81B502BC20DF7
:10069000C30DC40DC50DFA0DF90DF80DF70B442B64
:1006A000F81383147A08C5007908C4007808C300D9
:1006B0007708C200C901A030C8000C30C7008B30D9
:1006C000C60080308318C706CC01CD014308CB009B
:1006D0004708CB0642080319512CCA00F700460808
:1006E00003195A2CCA020319F62B031CB42B470812
:1006F000D000D0174808CF004908CE00CD01031024
:10070000D00CCF0CCE0CCD0CCA0B7E2BCB1F8B2B61
:100710004C146E2C4C104A104C1645308400831338
:10072000832C4C12CB1B9E2B4A1CA92BD00CCF0C1C
:10073000CE0CCD0CF70A0319692CA92BD01BAC2BBE
:100740000310CD0DCE0DCF0DD00DF7030319692C7D
:100750009E2B4C17162C4C134308CB00CB1FB22BEF
:10076000D017622CD013622C4608CA00F70042084A
:10077000CA024308D000D0174408CF004508CE0075
:10078000CD010310D00CCF0CCE0CCD0CCA0BC02B5E
:10079000CB1FCD2BCC146E2CCC104A10CC1649306C
:1007A00084008313832CCC12CB1BE02B4A1CEB2B35
:1007B000D00CCF0CCE0CCD0CF70A0319692CEB2B07
:1007C000D01BEE2B0310CD0DCE0DCF0DD00DF703AA
:1007D0000319692CE02BCC17162CCC134708CB003F
:1007E000CB1FF42BD017622CD013622C4708D000FB
:1007F000D0174808CF004908CE00CB1F032CD013D8
:100800004C156E2C4C11CD014A10453084008313D9
:10081000832CCB1B2C2C4308CB004A1C162CD00C51
:10082000CF0CCE0CCD0CF70A0319692CCD1F272C49
:10083000CE0A031D272CCF0A031D272CD00A031D27
:10084000272CD00CCF0CCE0CF70A0319692C4C1BAB
:10085000AB2BCC1BED2B4B2C8030D006D01F342C77
:100860006E2C4708CB00412C4308CB00D008031D59
:10087000412CCF08031D412CCE08031D412CF7014C
:10088000622CD01B4B2C0310CD0DCE0DCF0DD00DF7
:10089000F70B412C692CCB1F4F2CD017622CD01397
:1008A000622C4608F7004708D0004808CF004908E6
:1008B000CE00622C4208F7004308D0004408CF0065
:1008C0004508CE005008F8004F08F9004E08FA001D
:1008D000A12CF701F801F901FA01A12CCD01CE09F3
:1008E000CF09D009CD09CD0A031D7C2CCE0A031DEA
:1008F0007C2CCF0A0319D00A4C188A2BCC18CC2B8D
:100900004C19022C312C0008CE07031C8D2CCF0A69
:10091000031D8D2CD00A03194A1484030008CF0745
:10092000031C952CD00A03194A1484030008801F65
:10093000803AD00703184A144C1A912BCC1AD32BA7
:10094000092C7A08C5007908C4007808C300770824
:10095000C2004208B63CC200FA014308C600C317F1
:100960000310C30CC40CC50CFA0CF90CF80CF70CF2
:10097000C20BB02CC61FC72CF709F809F909FA09F0
:10098000F70A0319F80A0319F90A0319FA0A7A0887
:10099000B8007908B7007808B6007708B5002E08C7
:1009A000FA002D08840083132E1883173808C2001C
:1009B0003708C1003608C0003508BF007821770825
:1009C000BF007808C0007908C1007A08C200C600DC
:1009D0007908C5007808C4007708C300CA01C901B6
:1009E0004830C8008530C700A62177088000840AF7
:1009F00078088000840A79088000840A7A088000D8
:100A00003208BD003308BE003F217808F70079089E
:100A1000F800F901FA017A08BC007908BB007808EF
:100A2000BA007708B900C001BF010230BE007130C2
:100A3000BD003C08C4003B08C3003A08C2003908A6
:100A4000C1004E217A08C0007908BF007808BE00B6
:100A50007708BD00FA01400CF9003F0CF8003E0C8D
:100A6000F700F90CF80CF70CF90CF80CF70CF90C72
:100A7000F80CF70C0F30F9057A08BC007908BB00B8
:100A80007808BA007708B9002C08FA002B0884000F
:100A900083132C1883173C08C2003B08C1003A0896
:100AA000C0003908BF0078217708BF007808C0006F
:100AB0007908C1007A08C200C6007908C500780824
:100AC000C4007708C300CA01C9014830C800853096
:100AD000C700A62177088000840A78088000840A6D
:100AE00079088000840A7A0880000030F8008A11B2
:100AF0000A125A2E8E30F7002B08F7022C08F90044
:100B00002D08F800F917F7080319912D0310F908BB
:100B1000031D8D2DF8080319912DF90CF80CF70B16
:100B2000862DAC1F982DF809F909F80A0319F90A5E
:100B300008002E08F8012D020318A12D2D08F7003A
:100B4000AD2DF7010830AF00AD0DF70D2E0877027F
:100B50000318F700F80DAF0BA42D080078082B0838
:100B6000AD006430AE0099257708AB0078083030CE
:100B7000031DC12DAC1CC92DAC19C92D2C1A203058
:100B8000C42DAC112C122C14F80778080C1EC62D9D
:100B900099002B08AD000A30AE0099257708AB000C
:100BA00078083030031DDA2DAC19DF2D2C1CDF2D19
:100BB0002C1A2030F80778080C1EDC2D99003030F4
:100BC000AB072B080C1EE22D99000800840183134B
:100BD0001F308305FF3083169900A23098009030B3
:100BE0008312980083161F149F141F159F1107303E
:100BF0009C00FF308312A000A401A301A201A10167
:100C0000A801A701A601A50183161F149F141F1593
:100C10009F111F1383121F139F1383169F17831295
:100C20001F148316091283129412A012200883162F
:100C30008700831220162008831687008312A011D4
:100C40002008831687000130831294000030831639
:100C500094000108C73908388100831290010030E0
:100C6000F800920000308316920007309C000508BF
:100C700085001030F700F70B3B2E00001C08831294
:100C80000D1383169D010030F80083121F08C73929
:100C900078049F00A630F700F70B4C2E00009B282D
:100CA0006430BD000420AC012530AB00AE01213022
:100CB000AD00702A2408AE002308AD002208AC0065
:100CC0002108AB007A257808A9002808AE0027087B
:100CD000AD002608AC002508AB007A257808AA00EC
:100CE0002908AB001B30AC00AE2520300C1E762E40
:100CF00099002A08AB001B30AC00AE2520300C1E3A
:100D00007F2E990050300C1E832E9900532E6300C5
:02400E003A3F37
:00000001FF
;PIC16F877A
;CRC=C4E3  CREATED="13-abr-23 14:59"
