:1000000000308A00C82800000408F800A017200863
:10001000831687008312871B0B280830F700A20184
:10002000F7172228F71322280310871B0314A20CAA
:10003000771722287713F70B1428780884002208F2
:10004000F8003828053084000030F71B5530F800E0
:10005000F80B2828840B24285C30F71B1930F80093
:10006000F80B30280000F71B1228771B1A281428D9
:100070008A110A1222292508F801240203184328AC
:100080002408F7004F28F7010830A600A40DF70D4B
:10009000250877020318F700F80DA60B462808007C
:1000A0002013200883168700831207130830F800F6
:1000B00059280000F8176A28F813A40C031807172A
:1000C000031C071378176A287813F80B5D28682833
:1000D000000007170530F7008401840B6D28F70B2B
:1000E0006C2861308400840B73287628F81B5C2808
:1000F000781B6428080078082208A4006430A50052
:100100003B207708A20078083030031D8E28A31CFE
:100110009528A3199528231A20309128A31123127A
:100120002314F8077808A40050202208A4000A30FD
:10013000A5003B207708A20078083030031DA628D0
:10014000A319AA28231CAA28231A2030F807780804
:10015000A40050203030A2072208A40050208A11A9
:100160000A12292922308400831300080319C528A4
:100170000630F800F701F70BBB28F80BBA287B30E4
:10018000F700F70BC128800BB8288A110A122F2913
:10019000840183131F30830583160810831208140B
:1001A000201320088316870083120717A1018316E6
:1001B0001F149F141F159F1107309C00FF308312DE
:1001C000A00083161F149F141F159F111F13831265
:1001D0001F139F1383169F1383121F148316091274
:1001E00083129412A012200883168700831220160F
:1001F0002008831687008312A01120088316870029
:100200000130831294000030831694000108C7392E
:1002100008388100831290010030F800920000300D
:100220008316920007309C00050885001030F70007
:10023000F70B182900001C0883120D1383169D016B
:10024000831204287808A1002108A2001B30A30013
:100250007B280A30A40050203230A200B228212985
:02026000630039
:02400E003A3F37
:00000001FF
;PIC16F877A
;CRC=D08F  CREATED="23-mar-23 01:34"
