:1000000000308A008D2800003130840083130008FE
:10001000031917280630F800F701F70B0D28F80B25
:100020000C287B30F700F70B1328800B0A280800F8
:100030003408F8013302031820283308F7002C286D
:10004000F7010830B500B30DF70D34087702031837
:10005000F700F80DB50B232808008316081183124A
:1000600008110830F80034280000F8174528F81364
:10007000B30C03180815031C0811781745287813CA
:10008000F80B38284328000008150530F7008401D4
:10009000840B4828F70B472861308400840B4E28D6
:1000A0005128F81B3728781B3F28080078083108AA
:1000B000B3006430B40018207708B10078083030FD
:1000C000031D6928B21C7028B2197028321A20301A
:1000D0006C28B21132123214F8077808B3002D20C0
:1000E0003108B3000A30B40018207708B10078084E
:1000F0003030031D8128B2198528321C8528321A18
:100100002030F8077808B3002D203030B1073108CF
:10011000B3002D208A110A12FD28840183131F3099
:100120008305831608118312081583161F149F1464
:100130001F159F1107309C00FF308312A000B001F3
:1001400083161F1783121F179F1383169F1783127F
:100150001F1483161F109F141F159F150030F800E1
:1001600083121F08C73978049F002130F700F70B6E
:10017000B728AE01AF012F080A3C031CDE281F156B
:100180001F19C02883161E088312A1001E08A20092
:100190000A30B10004202208003C031CD62823307A
:1001A0002F078400831321088000DC2823302F07C9
:1001B00084008313FF308000AF0ABB28AF012F08F3
:1001C0000A3C031CF32823302F0784008313000804
:1001D0002E020318F12823302F0784008313000810
:1001E000AE00AF0ADF282E08B0006430B100042052
:1001F0003008B1001B30B20056280A30B3002D2061
:0A0200007030B3002D20B928630010
:02400E003A3F37
:00000001FF
;PIC16F877A
;CRC=F07F  CREATED="22-mar-23 22:38"
