:1000000001308A00F52900000A108A100A118207BF
:1000100028340F34013406348C048904D432733A02
:100020006510A0126410253200002A30840083136A
:100030000008031928280630F800F701F70B1E28DE
:10004000F80B1D287B30F700F70B2428800B1B28AA
:10005000080031182D2808122E28081683160812B9
:100060008312B1183528881236288816831688120C
:10007000831231193D2808133E28081783160813E8
:100080008312B119452888134628881783168813C8
:10009000891083128914831689108312891008002D
:1000A0008316091183120911AE08031D592809117D
:1000B0005A28091583160911A630F700F70B5E2898
:1000C00000008910831289102F0EB0000F30B00588
:1000D0003008B10029202F080F39B000B1002920C5
:1000E00008008316081283120812831688128312DE
:1000F0008812831608138312081383168813831239
:10010000881383160911831209118316891083122B
:1001100089100F30AA0015200130A3002308033CEA
:10012000031C9A280330B10029200530AA001520AD
:10013000A30A8E280230B1002920A3012308033C22
:10014000031CAB2823080420A400AE012408AF0040
:100150005020A30A9E288A110A12322A0830A400CD
:100160007708A50020162008831687000000831258
:10017000A0152008831687008312871DBD28071A43
:100180000314071E0310F80D0000A01120088316A9
:10019000870083128711A40BB2282016200883162B
:1001A000870000008312071225080319DC2820129B
:1001B00020088316870083120000A01520088316EC
:1001C00087008312871DE22800008711A0112008F4
:1001D000831687000000831207122012200883165E
:1001E00087008312080029080C3A03190129063AEE
:1001F00003190929073A03190929053A03191F297F
:100200002429AE010130AF0050200230AA00152091
:100210002A290130AA000230AB002B0B1029132928
:100220004030AC001429AC0101302A02AC072C0884
:100230008038AD00AE012D08AF0050202A29AE0154
:100240001030AF0050202A290130AE002908AF003D
:1002500050202A290800831603178C170C1400005D
:10026000000003185A2983120C087F390313A400D5
:1002700003170D080313A50003170F080313A600A7
:100280002408A900F320250803178D00031326086E
:1002900003178F0083168C170C14000000008312C4
:1002A0000313A30B54295729831603175A297829B6
:1002B0008316031783120C0D0E0D7F390313A40050
:1002C00003170D080313A50003170F080313A60057
:1002D0002408A900F320250803178D00031326081E
:1002E00003178F008D0A03198F0A0313A30B2B2901
:1002F0008A110A125F2A2A08F801290203188329A1
:100300002908F7008F29F7010830AB00A90DF70D78
:100310002A0877020318F700F80DAB0B86290800AE
:100320002030241E3030A5002308F700A31F9F298A
:10033000F709F70A7708A3002D30A500A4172308B2
:10034000A9006430AA007B217708A3003030780729
:10035000A6002308A9000A30AA007B2130307707C5
:10036000A80030307807A7002508F700A41DBA2997
:10037000A41F2411241AC729A41FE2292419E22941
:100380007708A600A418E2297708A700E2293030F0
:100390002602031DE2297708A6002030A500A41D2F
:1003A000D5292411A414A41FA41030302702031D42
:1003B000E2297708A7002030A600A41DD529A410A3
:1003C000A41F2410241DE7292508A900F320A41C3C
:1003D000EC292608A900F320241CF1292708A900EC
:1003E000F3202808A900F3200800840183131F309C
:1003F000830583161F149F141F159F1107309C003F
:10040000FF308312A0000530A1000A30A20083163D
:100410001F149F141F159F111F1383121F139F1367
:1004200083169F1383121F14831609120108C739FC
:1004300008388100831290010030F80092000030EB
:100440008316920007309C00050885001030F700E5
:10045000F70B282A00001C0883120D1383169D0138
:10046000831271282016200883168700000083124B
:10047000A01520088316870000008312071220129F
:10048000200883168700000083128711A01120081E
:10049000831687000130F7008312AE207808A10090
:1004A0000130F700AE207808A2000C3003178D0051
:1004B00000308F0003100B300313A3002B292108F9
:1004C000A3001F30A40090212030A900F3202208AF
:1004D000A3001F30A40090210230A300FA30AA002C
:0C04E0001520A30B6E2A83164A2A630025
:02400E003A3F37
:00000001FF
;PIC16F877A
;CRC=B754  CREATED="24-fev-23 00:28"
