:1000000001308A0044290000F4326D386539613AC4
:1000100075396110A53AA53AAE1275108A04000030
:10002000E83AED34E430E432A012F5127517A53A3F
:10003000200509002E3084008313000803192D28A1
:100040000630F800F701F70B2328F80B22287B3045
:10005000F700F70B2928800B2028080083160612CA
:10006000831206121930AE001A2006163130F7003E
:10007000F70B38283B288316061683128A110A12BA
:100080009C294230F700F70B43280000061A552838
:100090008530F700F70B4A28061E55285330F70025
:1000A000F70B50280130F80055288A110A129D29B3
:1000B000AF01201C5B28AD012D08073C031CA428C0
:1000C000AE01061A6E28AE0A2E08643C03186A2890
:1000D00020146E286B286C28000061283130F7004E
:1000E000F70B70287328061A86282D08073CB000E5
:1000F0000130F7003008F800031982280310F70DCB
:10010000F80B7E287708FF3AAF05A2282D08073C98
:10011000B0000130F7003008F800031993280310ED
:10012000F70DF80B8F287708AF04061EA228AE0A39
:100130002E08643C03189E282014A2289F28A0287B
:1001400000009528AD0A5C282F08F8000800300848
:10015000F8012F020318AF282F08F700BB28F7017A
:100160000830B100AF0DF70D300877020318F70023
:10017000F80DB10BB2280800831603178C170C1466
:10018000000000000318EC2883120C087F390313C9
:10019000AE0003170D080313AF0003170F08031376
:1001A000B0002E080C1ED22899002F0803178D00CE
:1001B0000313300803178F0083168C170C140000EC
:1001C000000083120313AD0BE628E92883160317FA
:1001D000EC280B298316031783120C0D0E0D7F39A3
:1001E0000313AE0003170D080313AF0003170F0826
:1001F0000313B0002E080C1EFB2899002F080317CC
:100200008D000313300803178F008D0A03198F0A1E
:100210000313AD0BBC28080078082D08AF0064302C
:10022000B000A7207708AD0078083030031D1F29E3
:10023000AE1C2729AE1927292E1A20302229AE11EB
:100240002E122E14F80778080C1E242999002D0868
:10025000AF000A30B000A7207708AD007808303032
:10026000031D3829AE193D292E1C3D292E1A203098
:10027000F80778080C1E3A2999003030AD072D0890
:100280000C1E402999000800840183131F30830548
:10029000813083169900A630980090308312980020
:1002A00083161F149F141F159F1107309C00FF30E9
:1002B0008312A60083161F149F141F159F111F136E
:1002C00083121F139F1383169F1383121F14831609
:1002D000091283129412A61226088316870083122D
:1002E00026162608831687008312A6112608831671
:1002F00087000130831294000030831694000108B7
:10030000C73908388100831290010030F80092004C
:1003100000308316920007309C00050885001030DD
:10032000F700F70B912900001C0883120D138316A8
:100330009D01831220102E284128F8080319362A1F
:1003400058207808A30058207808A400582078087E
:10035000A10058207808A20058207808A50020188D
:10036000352A24082307210722072502031D352AE1
:100370002108AF000A30B000A7207808A7002108A4
:10038000AF000A30B000A7207708A8002208AF000D
:100390000A30B000A7207808A9002308AF000A306F
:1003A000B000A7207808AA002308AF000A30B000E8
:1003B000A7207708AB002408AF000A30B000A720C0
:1003C0007808AC00043003178D0000308F00031054
:1003D0000C300313AD00BC202708AD001B30AE006D
:1003E0000C212808AD001B30AE000C212E300C1E55
:1003F000F72999002908AD001B30AE000C212030F0
:100400000C1E002A99000A300C1E042A990009309B
:100410000C1E082A9900103003178D0000308F0041
:10042000031009300313AD00BC202A08AD001B30B7
:10043000AE000C212B08AD001B30AE000C212E307D
:100440000C1E202A99002C08AD001B30AE000C2198
:1004500020300C1E292A99000A300C1E2D2A9900E2
:1004600009300C1E312A9900352A362A0630AD0093
:0E047000FA30AE001A20AD0B382A9A2963002C
:02400E003A3F37
:00000001FF
;PIC16F877A
;CRC=AB7A  CREATED="14-mar-23 01:36"
