:1000000000308A00FD280000FF00030E8301A100DC
:100010000A08A0008A010408A2007708A300780853
:10002000A4007908A5007A08A600831383128B1E0A
:100030001B280B192C28220884002308F700240809
:10004000F8002508F9002608FA0020088A00210E89
:100050008300FF0E7F0E09008A110A122F28AB0AB7
:100060002B08043C031CAB012B0B512883160511F4
:1000700083120515831685118312851183160512C7
:1000800083120512831685128312851230302707DA
:10009000840083130008C300831688018312430879
:1000A00088002B08023C031D70288316051183125B
:1000B0000511831685118312851583160512831287
:1000C00005128316851283128512303028078400AA
:1000D00083130008C3008316880183124308880035
:1000E0002B08033C031D8F2883160511831205116D
:1000F0008316851183128511831605128312051646
:1001000083168512831285123030290784008313E9
:100110000008C300831688018312430888002B0857
:10012000043C031DAE2883160511831205118316A6
:100130008511831285118316051283120512831609
:1001400085128312851630302A0784008313000835
:10015000C300831688018312430888002D08F90024
:100160002C08F800F90CF80CF90CF80CF90C7808CC
:100170009500F90C790C3039F7001708CF3977045E
:1001800097002F08F9002E08F800F90CF80CF90C6C
:10019000F80CF90C78089B00F90C790C3039F70051
:1001A0001D08CF3977049D000B118A110A121B28F4
:1001B000F801F901F701FA014108031DE22840089E
:1001C0000319FC281030C2000310BE0DBF0DF70D3F
:1001D000FA0D41087A02031DEF2840087702031C3C
:1001E000F8284008F702031CFA034108FA02031436
:1001F000F80DF90DC20BE4280800840183131F30A9
:10020000830583161F149F141F159F1107309C0030
:100210003F308312B0000630B1005B30B2004F3087
:10022000B3006630B4006D30B5007D30B6000730E5
:10023000B7007F30B8006F30B900BA01FF30BB00A3
:100240008316091283129412BB123B08831687008F
:1002500083123B163B08831687008312BB113B08B1
:1002600083168700013083129400003083169400B7
:1002700007309C00050885001030F700F70B3E2979
:1002800000001C0883120D1383169D011F17831293
:100290001F179F1383169F1783121F1483161F1097
:1002A0009F101F159F110108C03902388100831269
:1002B00090010030F80006389200FF30831692005B
:1002C00083123B113B0883168700831207110C3001
:1002D0009700BB103B0883168700831287100C30F1
:1002E0009D00803095001708CF39970080309B0023
:1002F0001D08CF399D008B16C0308B040030F800EC
:100300001F08C73978049F002130F700F70B8629B2
:1003100083168512831285120030F8001F08C73932
:1003200078049F002130F700F70B94291F151F193F
:10033000972983161E088312AC001E08AD000830F2
:10034000F8001F08C73978049F002130F700F70B29
:10035000A7291F151F19AA2983161E088312AE008C
:100360001E08AF002D08BF002C08BE000330C100DE
:10037000E830C000D8207808A7002D08BF002C085E
:10038000BE000330C100E830C000D8207708BC00B0
:100390007A08BD003D08BF003C08BE00C1016430C2
:1003A000C000D8207808A8003D08BF003C08BE0067
:1003B000C1016430C000D8207708BC007A08BD00B5
:1003C0003D08BF003C08BE00C1010A30C000D82073
:1003D0007808A9003D08BF003C08BE00C1010A30F2
:1003E000C000D8207708BC007A08BD003C08AA00ED
:0403F0008C296300F1
:02400E003A3F37
:00000001FF
;PIC16F877A
;CRC=8271  CREATED="06-mar-23 01:54"
