:1000000000308A00132800000330A902031C1228C4
:10001000293084008313000803191228102810289F
:10002000800B0F280800840183131F308305A10172
:10003000A001261083161F149F141F159F1107304F
:100040009C00FF308312A700A101A0012108033CFE
:10005000031C6428031D30282008E73C031C642887
:100060002711270883168700831207152108A80087
:10007000A80AA80303194028FF30A9000420392842
:100080002008A90004202008E83CA2000330A300B7
:100090002108031C210FA3022711270883168700BC
:1000A000831207112308A800A80AA80303195C28D3
:1000B000FF30A900042055282208A90004200A3096
:0C00C000A0070318A10A262824286300CA
:02400E003A3F37
:00000001FF
;PIC16F877A
;CRC=DAE0  CREATED="23-fev-23 17:03"
