:1000000000308A0004280000840183131F30830518
:1000100083161F149F141F159F1107309C00FF307B
:100020008312A00083161F149F141F159F111F1306
:1000300083121F139F1383169F1383121F1483169B
:10004000091283129412A0122008831687008312CB
:1000500020162008831687008312A011200883161B
:100060008700013083129400003083169400010849
:10007000C73908388100831290010030F8009200DF
:1000800000308316920007309C0005088500103070
:10009000F700F70B492800001C0883120D13831684
:1000A0009D01061183120611A630F700F70B5628A2
:1000B00000008316061183120615A630F700F70B11
:0A00C0005F2800008316512863003A
:02400E003A3F37
:00000001FF
;PIC16F877A
;CRC=85FF  CREATED="19-fev-23 23:18"
