:1000000000308A005A280000FF00030E8301A1007F
:100010000A08A0008A010408A2007708A300780853
:10002000A4007908A5007A08A600831383128C30F7
:100030008400001C1D280C182E2822088400230888
:10004000F7002408F8002508F9002608FA0020081F
:100050008A00210E8300FF0E7F0E09008A110A120A
:100060003128A808031D38282708643C03183A28BB
:10007000A801A7010130A7070318A80A2808F9005A
:100080002708F800F90CF80CF90CF80CF90C7808B2
:100090009B00F90C790C3039F7001D08CF39770433
:1000A0009D00831608110430831288060C108A11F3
:1000B0000A121D28840183131F308305A801A7019C
:1000C00083161F149F141F159F1107309C00FF30CB
:1000D0008312A90083161F149F141F159F111F134D
:1000E00083121F139F1383169F1383121F148316EB
:1000F000091283129412A912290883168700831209
:1001000029162908831687008312A9112908831646
:100110008700013083129400003083169400010898
:10012000C73908388100A530831290000030F800EC
:1001300005389200F930831692008312A91029081D
:1001400083168700831287100C309D0014309B00AB
:10015000073083169C00050885001030F700F70B68
:10016000AF2800001C0883120D1383169D010C1488
:08017000C03083128B04630010
:02400E003A3F37
:00000001FF
;PIC16F877A
;CRC=A4EA  CREATED="26-fev-23 20:02"
