:1000000000308A002D2800002B3084008313000864
:10001000031917280630F800F701F70B0D28F80B25
:100020000C287B30F700F70B1328800B0A280800F8
:100030002B08F8012A02031820282A08F7002C2888
:10004000F7010830AC00AA0DF70D2B087702031852
:10005000F700F80DAC0B23280800840183131F3030
:100060008305813083169900A63098009030831262
:10007000980083161F149F141F159F1107309C00B2
:10008000FF308312A00083161F109F101F159F11B1
:100090001F1783121F179F1383169F1383121F149A
:1000A0008316091283129412A01220088316870067
:1000B000831220162008831687008312A0112008BF
:1000C0008316870001308312940000308316940059
:1000D0000108C73908388100831290010030F80008
:1000E000920000308316920007309C0005088500BE
:1000F0001030F700F70B7A2800001C0883120D134C
:1001000083169D010030F80083121F08C739780458
:100110009F000A30AB0004200030F8001F08C739E8
:1001200078049F000A30AB0004201F151F19962881
:100130001E08A1000830F8001F08C73978049F0086
:100140000A30AB0004201F151F19A4281E08A200A6
:100150002108AA006430AB0018207808A300210809
:10016000AA006430AB0018207708A4002108AA0078
:100170006430AB0018207708A9002908AA000A30CB
:10018000AB0018207808A4002908AA000A30AB00A8
:1001900018207708A5002208AA006430AB001820B8
:1001A0007808A6002208AA006430AB00182077085F
:1001B000A7002208AA006430AB0018207708A90025
:1001C0002908AA000A30AB0018207808A7002908DF
:1001D000AA000A30AB0018207708A8003030A30727
:1001E000A407A507A607A707A80723080C1EF6283B
:1001F000990024080C1EFA28990025080C1EFE28D8
:1002000099004C300C1E0229990026080C1E062964
:10021000990027080C1E0A29990028080C1E0E298F
:1002200099000A300C1E122999000230AA0096305B
:0C023000AB000420AA0B17298C286300E7
:02400E003A3F37
:00000001FF
;PIC16F877A
;CRC=714D  CREATED="10-abr-23 13:35"
