:1000000000308A00A5280000FF00030E8301A10034
:100010000A08A0008A010408A2007708A300780853
:10002000A4007908A5007A08A600831383128C30F7
:100030008400001C1D280C182E2822088400230888
:10004000F7002408F8002508F9002608FA0020081F
:100050008A00210E8300FF0E7F0E09008A110A120A
:100060005628F801F901F701FA012D08031D3B2874
:100070002C08031955281030AE000310AA0DAB0D43
:10008000F70DFA0D2D087A02031D48282C08770277
:10009000031C51282C08F702031CFA032D08FA024E
:1000A0000314F80DF90DAE0B3D2808000A30A70720
:1000B0000318A80A2808263C03186728FF3A031DDE
:1000C00065282708103C03186728A801A7012808FD
:1000D000AB002708AA00AD010A30AC003120790836
:1000E000AB007808AA00AB0CAA0CAB0CAA0CAB0CAA
:1000F0002A089500AB0C2B0C3039F7001708CF39C4
:10010000770497002808AB002708AA00AD010A3041
:10011000AC0031207908AB007808AA00AB0CAA0C1F
:10012000AB0CAA0CAB0C2A089B00AB0C2B0C303987
:10013000F7001D08CF3977049D003C308F00B030A8
:100140008E000C108A110A121D28840183131F309F
:100150008305A801A70183161F149F141F159F1163
:1001600007309C00FF308312A9003C308F00B03074
:100170008E0083161F149F141F159F111F138312C7
:100180001F139F1383169F1383121F1483160912C4
:1001900083129412A9122908831687008312291644
:1001A0002908831687008312A9112908831687005E
:1001B0000130831294000030831694000108C7397F
:1001C000083881008530831290000030F80006382E
:1001D0009200FF308316920083122911290883169A
:1001E0008700831207110C309700A9102908831685
:1001F0008700831287100C309D00FF309500170890
:10020000CF3930389700FF309B001D08CF39303888
:100210009D00073083169C00050885001030F7000C
:10022000F70B102900001C0883120D1383169D0183
:0E0230000C148C14C03083128B041D29630043
:02400E003A3F37
:00000001FF
;PIC16F877A
;CRC=DDC3  CREATED="27-fev-23 22:02"
