:1000000004308A00232C00000A108A100A1182078B
:1000100028340F34013406348C04A024C62654102E
:100020000D050000092B41264F292021C124D82786
:100030000D008C0449234D2AA0060A00092B4126F5
:100040004F29A0122E19E60600008C0449234D2AE0
:10005000A0060A00092B41264F29A0264522C927C0
:100060000D0034308400831300080319442806303F
:10007000F800F701F70B3A28F80B39287B30F70026
:10008000F70B4028800B372808003B184928081236
:100090004A280816831608128312BB1851288812A2
:1000A000522888168316881283123B195928081380
:1000B0005A280817831608138312BB19612888135E
:1000C000622888178316881389108312891483166F
:1000D00089108312891008008316091183120911EF
:1000E000B808031D7528091176280915831609110A
:1000F000A630F700F70B7A280000891083128910C8
:10010000390EBA000F30BA053A08BB00452039084D
:100110000F39BA00BB00452008008316081283126D
:10012000081283168812831288128316081383120A
:1001300008138316881383128813831609118312F8
:10014000091183168910831289100F30B4003120F1
:100150000130A6002608033C031CB6280330BB0070
:1001600045200530B4003120A60AAA280230BB0081
:100170004520A6012608033C031CC72826080420A6
:10018000A700B8012708B9006C20A60ABA288A116E
:100190000A127B2C8E30F7002708F8002608F90099
:1001A000FA01F808031DDE287908F800F901083083
:1001B000F702F808031DDE28F701E6280310F81BF4
:1001C000E528F90DF80DF703DE28F8138A110A1255
:1001D000872C330803195929BB00370803195929FB
:1001E000BB070318FA287F30BB02031C59290319E7
:1001F0005929FE288130BB07031859293B08F7000D
:10020000F801F901FA013408BF00BF173508BE0034
:100210003608BD001830BB00BC013D1C27293A0838
:10022000FA07031C1929F90A031D1929F80A0319E9
:10023000BC173908F907031C2029F80A0319BC1751
:100240003808B500B5173508F8070318BC17BC0DFA
:10025000F80CF90CFA0CBF0CBE0CBD0C0310BB0B58
:100260000C290130F70703185929F81B3E29BF0D47
:10027000FA0DF90DF80DF70303195929BF1F4F297E
:10028000FA0A031D4F29F90A031D4F29F80A031D15
:100290004F29F80CF90CFA0CF70A031959293408FC
:1002A000BC003808BC06BC1F5729F8175D29F81395
:1002B0005D29F701F801F901FA0108002A0803197C
:1002C000232AB6002E080319232AB602031C6D291F
:1002D0007F30B6070318232A73298130B602031C26
:1002E000232A0319232A3608F700F801F901FA0135
:1002F000B5012B08B400B4172C08B3002D08B200C8
:100300001930B6003108B202031896290130B30241
:1003100003189629B40203189629B50203189629E2
:10032000B50AB40AB30A3108B207C8293008B302C3
:100330000318B1290130B4020318B129B50203181A
:10034000B129B50AB40A3008B3073108B207031C53
:10035000C829B30A031DC829B40A031DC829B50A50
:10036000C8292F088038B4020318C7290130B50204
:100370000318C729B50A2F088038B4073008B30717
:10038000031CA529B40A031DA529B50AA5297A14B9
:10039000B60BCB29D6290310B20DB30DB40DB50D94
:1003A0000310FA0DF90DF80DB70D8229371CDE295F
:1003B0000310F80CF90CFA0CB70CE129F703031938
:1003C000232AB71B0A2A0310B20DB30DB40DB50DC5
:1003D0003108B2020318F6290130B3020318F629D6
:1003E000B4020318F629B502031C192A3008B30217
:1003F0000318012A0130B4020318012AB502031CB4
:10040000192A2F088038B40203180A2A0130B502CD
:10041000031C192AFA0A031D192AF90A031D192AAD
:10042000F80A031D192AF70A0319232AF80CF90CF4
:10043000FA0C2B08B6002F08B606B61F212AF817AB
:10044000272AF813272AF701F801F901FA018A117E
:100450000A12AB2C33080C3A0319382A063A03194E
:10046000402A073A0319402A053A0319562A5B2AFB
:10047000B8010130B9006C200230B4003120612A8B
:100480000130B4000230B500350B472A4A2A40300B
:10049000B6004B2AB60101303402B6073608803860
:1004A000B700B8013708B9006C20612AB8011030D4
:1004B000B9006C20612A0130B8003308B9006C2003
:1004C000612A0800831603178C170C140000000023
:1004D00083120C087F390319A62A0313A6000317F9
:1004E0000D080313A70003170F080313A80026081D
:1004F000B3002A22270803178D00031328080317C7
:100500008F0083168C170C140000000083120C0D52
:100510000E0D7F390319A62A0313A60003170D0831
:100520000313A70003170F080313A8002608B3003E
:100530002A22270803178D000313280803178F00AA
:100540008D0A03198F0A0313622A03170313080085
:10055000831603178C170C14000000000318D72A09
:1005600083120C087F390313A70003170D08031328
:10057000A80003170F080313A9002708B3002A22B5
:10058000280803178D000313290803178F0083160B
:100590008C170C140000000083120313A60BD12A41
:1005A000D42A83160317D72AF52A83160317831232
:1005B0000C0D0E0D7F390313A70003170D0803134D
:1005C000A80003170F080313A9002708B3002A2265
:1005D000280803178D000313290803178F008D0ABD
:1005E00003198F0A0313A60BA82A8A110A12DA2C00
:1005F000F701F801F901FA01BB01BC01BD01BE011F
:100600003A083904380437040319362B2030BF0068
:100610000310B30DB40DB50DB60DBB0DBC0DBD0D66
:10062000BE0D3A083E02031D1F2B39083D02031D73
:100630001F2B38083C02031D1F2B37083B02031CED
:10064000302B3708BB023808031C380FBC023908AE
:10065000031C390FBD023A08031C3A0FBE020314F3
:10066000F70DF80DF90DFA0DBF0B082B3B30840088
:10067000831308000408AB002A08AD000319592BA6
:100680002908B6002808B5002708B4002608B300DA
:10069000BA01B9012030B8008230B700E9207A08E9
:1006A000A9007908A8007808A7007708A600AD0B74
:1006B000402B2908B6002808B5002708B4002608F2
:1006C000B3003308B63CB300FA013408B700B417DE
:1006D0000310B40CB50CB60CFA0CF90CF80CF70CB2
:1006E000B30B682BB71F7F2BF709F809F909FA0933
:1006F000F70A0319F80A0319F90A0319FA0A7A081A
:10070000A9007908A8007808A7007708A600A91F03
:10071000962BAB03AB16A609A709A809A909A60A37
:100720000319A70A0319A80A0319A90A3B30B20042
:100730009A30B100CA30B000AF010A30AD002A08CB
:100740000319AB0A2908B6002808B5002708B40029
:100750002608B3003208BA003108B9003008B800E2
:100760002F08B700F8220008A600840A0008A70096
:10077000840A0008A800840A0008A900FD30840744
:10078000F708031DD62B2A0A2D020319D62B2B0896
:100790000319D82B0F392D020319D02B0318082C5D
:1007A000AB1B082C2B1BD82B2030042C2030AB0586
:1007B000AB1EE62BAB122A08031DAB037708AB0078
:1007C0002D30B3002A222B08F700AB012A082D0296
:1007D000031DF42B7708AB002E30B3002A222B0820
:1007E000F7002030AB0500303030AB1E042CAB12CC
:1007F0002A08031DAB037708AB002D30B3002A2273
:100800002B08F700AB013030F7077708B3002A2236
:100810003208B6003108B5003008B4002F08B30024
:10082000BA01B901B8010A30B700F8227A08B2005B
:100830007908B1007808B0007708AF00AD0BA22BA3
:100840008A110A12E72C840183131F308305831653
:100850001F149F141F159F1107309C00FF30831237
:10086000A00083161F109F141F159F151F178312BA
:100870001F179F1383169F1383121F1483160912C9
:1008800083129412A0122008831687008312201668
:100890002008831687008312A01120088316870082
:1008A0000130831294000030831694000108C73988
:1008B00008388100831290010030F8009200003067
:1008C0008316920007309C00050885001030F70061
:1008D000F70B682C00001C0883120D1383169D0172
:1008E0000030F80083121F08C73978049F000130D8
:1008F000B40031208D280A30B40031201F151F1993
:100900007F2C1E08A100A7012108A600CA287A088A
:10091000B6007908B5007808B4007708B300BA01CA
:10092000B9012030B8008130B700E9207708A6006F
:100930007808A7007908A8007A08A900AD0079080E
:10094000AC007808AB007708AA00B101B001AF0194
:100950008730AE005E297A08A5007908A4007808DF
:10096000A3007708A2002108653C031CC52C0C30AD
:1009700003178D0000308F0003136222123003171B
:100980008D0000308F00031362222108CD3C031834
:10099000EA2C193003178D0000308F0003136222F8
:1009A0001E3003178D0000308F0003100730031333
:1009B000A600A82A893084002508A9002408A800D8
:1009C0002308A7002208A6000230AA003A2B0D3007
:1009D000B3002A222108663C0318002D2108CC3CD4
:1009E000031C002D253003178D0000308F000313EA
:1009F00062222A3003178D0000308F000313622219
:100A00000330A6006F30B4003120A60B022D7E2CDF
:020A1000630081
:02400E003A3F37
:00000001FF
;PIC16F877A
;CRC=D58C  CREATED="22-mar-23 23:16"
