:1000000000308A006E280000FF00030E8301A1006B
:100010000A08A0008A010408A2007708A300780853
:10002000A4007908A5007A08A600831383128B1E0A
:100030001B280B192C28220884002308F700240809
:10004000F8002508F9002608FA0020088A00210E89
:100050008300FF0E7F0E09008A110A122F28A70ABB
:100060000319A80AA808031D39282708C43C031847
:100070004028A801A70183160610013083128606C6
:10008000A90A0319AA0A2A08023C03185528FF3AAC
:10009000031D4E282908C23C03185528AA01A901AE
:1000A00083168610023083128606AB0A0319AC0A47
:1000B0002C08003C03186A28FF3A031D63282B080C
:1000C0009A3C03186A28AC01AB0183160611043070
:1000D000831286060B118A110A121B2884018313CE
:1000E0001F308305A801A701AA01A901AC01AB013A
:1000F00083161F149F141F159F1107309C00FF309B
:100100008312AD0083161F149F141F159F118312B5
:100110001F108316091283129412AD122D08831634
:10012000870083122D162D08831687008312AD11C8
:100130002D08831687000130831294000030831647
:1001400094000108C73908388100831290010030FB
:10015000F800920000308316920007309C000508DA
:1001600085001030F700F70BB32800001C0883123D
:100170000D1383169D0183128B16C0308B04BF288C
:0201800063001A
:02400E007A3FF7
:00000001FF
;PIC16F877A
;CRC=613D  CREATED="04-abr-23 12:06"
