:1000000000308A00BD280000FF00030E8301A1001C
:100010000A08A0008A010408A2007708A300780853
:10002000A4007908A5007A08A600831383128B1E0A
:100030001B280B1932288C308400001C21280C1836
:100040003528220884002308F7002408F800250832
:10005000F9002608FA0020088A00210E8300FF0E0E
:100060007F0E09008A110A1238288A110A12812883
:100070000F08FA000E08F7000F087A02031D38284F
:100080007708B2007A08B3000630B2070318B30A43
:1000900032088100AB0A0319AC0AAC08031D5428CE
:1000A0002B086D3C03185B288316881220308312BE
:1000B0008806AC01AB01AD0A0319AE0AAE08031DF8
:1000C00065282D08473C03186C2883160812103049
:1000D00083128806AE01AD01AF0A0319B00AB00859
:1000E000031D76282F08283C03187D2883168811C5
:1000F000083083128806B001AF010B118A110A1271
:1001000021280F08FA000E08F7000F087A02031DD5
:1001100081287708B2007A08B300B030B2073C30CB
:1001200003183D30B30733088F0032088E00A70A4A
:100130000319A80AA808031DA1282708323C0318A0
:10014000A82883168813803083128806A801A70187
:10015000A90A0319AA0AAA08031DB2282908FA3C09
:100160000318B92883160813403083128806AA01A1
:10017000A9010C108A110A122128840183131F304F
:10018000830583161F149F141F159F1107309C00B1
:10019000FF308312B10083161F149F141F159F1187
:1001A0001F1383121F139F1383169F1383121F1491
:1001B0008316091283129412B11231088316870034
:1001C000831231163108831687008312B11131086A
:1001D0008316870001308312940000308316940048
:1001E0000108C03981008530831290000030F8008A
:1001F000920000308316920007309C0005088500AD
:100200001030F700F70B022900001C0883120D13B1
:1002100083169D0183128B1683160C14C030831233
:100220008B04063081003C308F00B0308E001729DF
:02023000630069
:02400E003A3F37
:00000001FF
;PIC16F877A
;CRC=9959  CREATED="23-mar-23 00:11"
