:1000000000308A0099280000FF00030E8301A10040
:100010000A08A0008A010408A2007708A300780853
:10002000A4007908A5007A08A600831383128B1E0A
:100030001B280B192C28220884002308F700240809
:10004000F8002508F9002608FA0020088A00210E89
:100050008300FF0E7F0E09008A110A1283280A10FE
:100060008A100A1182070034003401340234033448
:100070000534073409340C340E3412341534193471
:100080001D342134253429342D34323436343A3475
:100090003E34423446344A344E345134513451346F
:1000A000553457345A345C345E34603461346234CD
:1000B000633463346234613460345E345C345A34A3
:1000C0005734553451344E344A34463442343E3435
:1000D0003A34363432342D343334253421341D341B
:1000E00019341934153412340E340C3409340734ED
:1000F0000534033402340134003400340034003455
:10010000003400340034A70A2708023C031895285D
:100110000130A80728082F20F800A9002908950019
:10012000A7012808493C031CA8010B118A110A12D7
:100130001B28840183131F308305A701A8018316A0
:100140001F149F141F159F1107309C00FF3083124E
:10015000AA0083161F149F141F159F111F138312CB
:100160001F139F1383169F1383121F1483160912E4
:1001700083129412AA122A088316870083122A1661
:100180002A08831687008312AA112A08831687007B
:100190000130831294000030831694000108C039A6
:1001A00002388100831290010030F8000638920076
:1001B000FF308316920083122A112A0883168700C3
:1001C000831207110C309700AA142A08831687009F
:1001D00083129D0163309500073083169C0005084B
:1001E00085001030F700F70BF32800001C0883127D
:1001F0000D1383169D0183128B16C0308B04630090
:02400E003A3F37
:00000001FF
;PIC16F877A
;CRC=2D64  CREATED="21-fev-23 22:00"
